:100929000179001812B27BE0B29F8CB26BE0000033
:0D09390000000000000000000000000000B1
:1006DC00120D95120E65C2C1E47879F6C2A5C2A4BA
:1006EC00F50DF50CF50BF50AF509F508F50EF50FFA
:1006FC00F52AF510F51120C217120B9520C211E442
:10070C00FF1200267F311200067F3C7E28120B99C7
:10071C00209117120B952091117F011200267F3228
:10072C001200067F3C7E28120B9920C317120B95E2
:10073C0020C3117F021200267F331200067F3C7EFD
:10074C0028120B99E51160AEE510B43004E4FF807B
:10075C0010E510B431047F018007E510B432057F39
:0A076C0002120026E4F51102070254
:03000B00020F9C45
:100F9C00C0E0C0D075D000C000C001C002E4FAF9B6
:100FAC00F8E50D2401F50DEA350CF50CE9350BF5DA
:100FBC000BE8350AF50AB2A5D002D001D000D0D08A
:030FCC00D0E03240
:03002300020D4883
:100D4800C0E0C0F0C083C082C0D075D000C000C071
:100D580001C002C003C004C005C006C00730980D1A
:100D6800C298859910AF10120006751101309902CA
:100D7800C299D007D006D005D004D003D002D00144
:0D0D8800D000D0D0D082D083D0F0D0E032A7
:100E2400E4F50DF50CF50BF50AD2A4E47F547E012C
:100E3400FDFCAB0DAA0CA90BA80AC3120A7A40EB5D
:100E4400C2A4E4F50DF50CF50BF50AE47F4F7E0121
:100E5400FDFCAB0DAA0CA90BA80AC3120A7A40EB3D
:010E6400226B
:100EA600E4F50DF50CF50BF50AD2A4E47F2AFEFD58
:100EB600FCAB0DAA0CA90BA80AC3120A7A40ECC215
:100EC600A4E4F50DF50CF50BF50AE47F7CFEFDFCBC
:0F0ED600AB0DAA0CA90BA80AC3120A7A40EC2292
:100EE500E4F50DF50CF50BF50AD2A4E47F2AFEFD19
:100EF500FCAB0DAA0CA90BA80AC3120A7A40ECC2D6
:100F0500A4E4F50DF50CF50BF50AE47F2AFEFDFCCE
:0F0F1500AB0DAA0CA90BA80AC3120A7A40EC2252
:020026008F3415
:10002800D28CE53404FF1210C6120E24E4F535E52F
:100038003475F003A424122535F8E6F538E4F536CE
:10004800E536B401036338FFE4F537C37407953721
:10005800FFE538A807088002C313D8FC5401F53916
:100068006005120EA68003120EE50537E537C39426
:100078000840D80536E536C3940240C40535E53551
:10008800C3940340AAE4F50DF50CF50BF50AD2A4C8
:10009800E47F2AFEFDFCAB0DAA0CA90BA80AC3122B
:1000A8000A7A40ECC2A4E4F50DF50CF50BF50AE468
:1000B8007F867E01FDFCAB0DAA0CA90BA80AC31212
:1000C8000A7A40EB120E24E4F535E53475F003A402
:1000D80024122535F8E6F538E4F536E536B401039B
:1000E8006338FFE4F537C374079537FFE538A80789
:1000F800088002C313D8FC5401F5396005120EA616
:100108008003120EE50537E537C3940840D8053655
:10011800E536C3940240C40535E535C3940340AAC7
:10012800E4F50DF50CF50BF50AD2A4E47F29FEFDE4
:10013800FCAB0DAA0CA90BA80AC3120A7A40ECC2A0
:050148008CC2A4C2A559
:01014D00228F
:10025F0030C203020339E508C3940840030203398F
:10026F00E50804FF1210C620A7FD7F32120B97304E
:10027F00A703020339E4F5097F1FFEFDFC120B9D56
:10028F0020A7FDE4F56330A7FDE4F50DF50CF50BA4
:10029F00F50A758DFF758B98D28E20A7FDC28EE55E
:1002AF0063131313541FF564C3740A950DFFE4957C
:1002BF000CFE12113CC3EF9402EE64809480E508AB
:1002CF0075F0035009A424122564F8E68009A424CC
:1002DF00122564F8E64401F6E50875F003A424122C
:1002EF002564F8C000E625E0D000F60563E563C39A
:1002FF0094204092E50875F003A42415F8E6F4FF66
:0D030F00E50875F003A42414F8E6B5071DF9
:10031C00756501AF08E565A807088002C333D8FCF2
:0D032C00F5654209E50804FF1210C605083A
:0103390022A1
:10080E00EFB40800400302089C90081EF8282873D5
:10081E0002083602084502085302086002086C02FC
:10082E00087A020887020892E509C41313135401CB
:10083E0030E05BE4FF8054E509C41313540330E049
:10084E004D7F018046E509C413540730E0407F0216
:10085E008039E509C4540F30E0347F03802DE5095B
:10086E00131313541F30E0267F04801FE509131362
:10087E00543F30E0197F058012E509C31330E00EB6
:0F088E007F068007E50930E0057F07120026226C
:100D950043920143B20875BBFF7580FF7590FF75DF
:100DA500A0FF75B0F775C03F12000EC290758E1585
:100DB500E4F5B8F5B7D2B8D2B9D2BC43B701C2A8E9
:100DC500C2AAD2AF758922D2AFD2A9D2AB758CE8AF
:080DD500758AE8C28CC28E226F
:080B95007F967E007D007C00CC
:080B9D008F3F8E3E8D3D8C3C24
:100BA500E4F543F542F541F540F583F582E4F54377
:100BB500F542F541F540AF3FAE3EAD3DAC3CAB43F4
:100BC500AA42A941A840C3120A90501A000000E5A4
:100BD500432401F543E43542F542E43541F541E46A
:0F0BE5003540F54080D0A3E5826405458370BE9E
:010BF40022DE
:080C50008F2F8E2E8D2D8C2CB0
:100C5800E4F533F532F531F530F583F582E4F53313
:100C6800F532F531F530AF2FAE2EAD2DAC2CAB33C0
:100C7800AA32A931A830C3120A90501A000000E520
:100C8800332401F533E43532F532E43531F531E416
:0F0C98003530F53080D0A3E5826405458370BE0A
:010CA700222A
:0210C6008F3A5F
:1010C800E4F53BE53BC3953A5016C2B47FB47E14B1
:1010D800120B99D2B47FB47E14120B99053B80E3AE
:0110E80022E5
:10110600E4FEC297EF30E704D2928002C292D293F5
:0A111600EF25E0FFC2930EBE08EAC9
:0111200022AC
:100F2400E4F569F56AF5691200207F64120B9712E3
:100F34001001EF7002800B7F0A120B971209B4EFB5
:100F4400700A120E657F64120B978005756A018022
:0C0F5400090569E569C3940540CDAF6A4A
:010F6000226E
:03000300020F6188
:100F6100C0E0C0F0C083C082C0D075D000C000C056
:100F710001C002C003C004C005C006C00712014E73
:100F8100D007D006D005D004D003D002D001D000C4
:0B0F9100D0D0D082D083D0F0D0E0326E
:10000E00759850759CFA758E15C28CC28ED2ACD274
:02001E00AF220F
:030006008F9922AD
:0A114E007F0D1200067F0A02000662
:101057008B668A678968AB66AA67A968120A3460D3
:10106700130568E5687002056714F9120A34FF1260
:05107700000680E222EA
:080CFA00FC120AA1787BEFF661
:020D0200AE073A
:100D0400EE54F0787AF6E6C4540FF6D3940940060C
:100D1400E62437F68006787AE62430F6787AE6FF19
:100D2400120006EE540FF6D394094006E62437F673
:100D34008006787AE62430F6787AE6FF1200067F99
:040D44002002000683
:080DDD008F628E618D608C5F56
:100DE5007F5B120006AF62AE61AD60AC5F78181232
:100DF5000CFBE4FFFEE560FDE47810120CFAE4FF5D
:100E0500E561FEE4FD7808120CFAE562FF787BEFF8
:0F0E1500F6FF120D027F5D1200067F200200061D
:10107C008F80D2A0C2A6C2B6000000D2B6D2A60003
:10108C0000008D80C2A0C2A6C2B6000000D2B6D2AB
:05109C00A60000002287
:1010A1008F80D2A0C2A6C2B6000000D2B6D2A600DE
:1010B1000000C2A0C2A6C2B7000000AF80D2B7D262
:0410C100A600000085
:0110C5002208
:100BF5004C445F41737252756E28292E00202020C7
:100C050020006775616E006B61690079616F000096
:100C15000A4C445F4173724164644669786564288F
:100C2500292E0041535220526573756C74203D2066
:100C350000506C6179536F756E64202D200041530F
:0B0C45005220526573756C74203D0056
:1009460060480000000000000000A0800000A081B8
:100956000000746B000114ED000089A400019E9252
:10096600000072C90002115C000072C900028426F0
:10097600000072C90002F6F000007FD8000376C9B5
:1009860000007AF2000000000000000004480000A9
:100996000000045100000000044400000000044C64
:0D09A6000000000001780001500001750FF5
:100E6500D2B37F017E007D007C00120B9DC2B37F53
:100E7500017E007D007C00120B9DD2B37F017E00B8
:100E85007D007C00120B9DC2A67F017E007D007C4B
:100E950000120B9DD2A67F017E007D007C00020B17
:010EA5009DAF
:10040700E4F5507F061210A17D357F1712107C7F0F
:100417000A7E007D007C00120B9D7F061210A17DD5
:10042700037F8912107C7F057E007D007C00120B04
:100437009D7D437FCF12107C7F057E007D007C0071
:10044700120B9D7D027FCB12107C7D0A7F1112104B
:100457007C7878E6B44019E4FD7F1E12107C7D0F8E
:100467007F1912107C7D187F1B12107C7D2B801743
:10047700E4FD7F1E12107C7D3F7F1912107C7D48A2
:100487007F1B12107C7D1F7F1D12107C7F0A7E0050
:100497007D007C00120B9D7D047FCD12107C7D4C6E
:1004A7007F1712107C7F057E007D007C00120B9D5C
:1004B700E4FD7FB912107C7D4F7FCF12107C7DFF4A
:0504C7007F6F02107CB4
:10063600787876401204077D027FBD12107C7D48D3
:100646007F1712107C7F0A7E007D007C00120B9DB6
:100656007D527F8512107CE4FD7F8F12107CE4FDB5
:100666007F8112107CE4FD7F8312107C7DFF7F8EDC
:1006760012107C7DFF7F8D12107C7F017E007D0035
:100686007C00120B9D7DFF7F8712107C7DFF7F898A
:1006960012107C7F017E007D007C00120B9DE4FD24
:1006A6007F2212107CE4FD7F2312107C7DEF7F20D9
:1006B60012107C7D077F2112107C7D777F2412101B
:1006C6007C7D037F2512107C7DBB7F2612107C7DEE
:0606D600017F2702107CE9
:100B320078787608120407E4FD7FBD12107C7D48A8
:100B42007F1712107C7F0A7E007D007C00120B9DB5
:100B52007D807F3C12107C7D077F3E12107C7DFFE2
:100B62007F3812107C7D077F3A12107CE4FD7F40B3
:100B720012107C7D087F4212107CE4FD7F4412102B
:100B82007C7D087F4612107C7F017E007D007C0008
:030B9200020B9DB6
:10014E00E4F52BC2A87F2B1210A17874A60778783D
:10015E00E664087051FD7F2912107CE4FD7F0212C7
:10016E00107C7874E630E42D7FB21210A1EF64217A
:10017E0070237FBF1210A1BF351B7FBA1210A18F43
:10018E002BE52BD39400400DE52BD3940450067829
:10019E00797610800478797611E4FD7F2B12107C2D
:1001AE00E4FD7F1C805E7F291210A17873A6077F65
:1001BE00021210A17876A607E4FD7F2912107CE4C6
:1001CE00FD7F0212107C7FBA1210A1EF30E538E4E9
:1001DE00FD7F2B12107CE4FD7FBA12107CE4FD7FB4
:1001EE00BC12107CE4F5507D017F0812107C7F0557
:1001FE007E007D007C00120C50E4FD7F0812107C06
:10020E00E4FD7F3302107CAF54AE53AD52AC51AB14
:10021E0047AA46A945A844C3120A9040117D017F02
:10022E00BC12107C7D107F2912107CD2A8221205E0
:10023E00817873E6FD7F2912107C7876E6FD7F02C9
:10024E0012107C7F0A7E007D007C00120C50D2A81A
:01025E00227D
:100CA800E4F547F546F545F544755001AF54AE53A4
:100CB800AD52AC51AB47AA46A945A844C3120A9005
:100CC800502F1204CCE4FD7FBA12107C7D487F17A8
:100CD80012107C7D017F3312107C7D047F29121055
:100CE8007C7D017F0212107C7D5A7F8512107CD298
:020CF800A82230
:1010E9007875A607C3740F9F540F25E025E044C304
:0D10F900FD7F8E12107C7D787F8702107CB9
:1004CC00E54B2547F558E54A3546F557E549354599
:1004DC00F556E5483544F555D297C293C2977F0B34
:1004EC00121106E558FFE557FEE556FDE4FC7810C1
:1004FC00120AA1121106E558FFE557FEE4FDFC783F
:10050C0008120AA1121106E558FFE41211067FFF2A
:10051C0012110680507877E620E355AF54AE53ADF8
:10052C0052AC51AB47AA46A945A844C3120A9050F5
:10053C003FE4F559FFC293E55925E0F559D293A252
:10054C0096E43342590FBF08ECAD597F0112107C71
:10055C00E5472401F547E43546F546E43545F545D0
:10056C00E43544F5447F061210A17877A60780A5E0
:04057C00D297C293BD
:010580002258
:10058100E54B2547F52FE54A3546F52EE549354535
:10059100F52DE5483544F52CD297C293C2977F0BD0
:1005A100121106E52FFFE52EFEE52DFDE4FC781086
:1005B100120AA1121106E52FFFE52EFEE4FDFC78DB
:1005C10008120AA1121106E52FFFE41211067FFF9E
:1005D10012110680507877E620E355AF54AE53AD43
:1005E10052AC51AB47AA46A945A844C3120A905040
:1005F1003FE4F530FFC293E53025E0F530D293A218
:1006010096E43342300FBF08ECAD307F0112107C0D
:10061100E5472401F547E43546F546E43545F5451A
:10062100E43544F5447F061210A17877A60780A52A
:04063100D297C29307
:0106350022A2
:10102E00E4F56CF56B7FB21210A1BF2105756C0152
:10103E0080147F0A7E007D007C00120B9D056BE5FF
:08104E006BC3940A40DFAF6C94
:011056002277
:03002000020B329E
:1009B4007BFF7A0B79F512105712114E7D4C7F355F
:1009C40012107C7D097F1C12107C7D207FBD1210CB
:1009D4007C7D017F0812107C7F017E007D007C00FD
:1009E400120B9DE4FD7F0812107C7F017E007D00C8
:1009F4007C00120B9D12102EEF7002FF227DFF7FF0
:100A0400B212107C7D067F3712107C7F057E007D3C
:100A1400007C00120B9D7D0B7F1C12107C7D107FCF
:100A24002912107CE4FD7FBD12107CD2A87F012224
:080776008B5A8A5B895C8D5DE2
:10077E00AF5D120D027BFF7A0C7902121057AB5A45
:10078E00AA5BA95C12105712114EAB5AAA5BA95C58
:10079E00120A34606AAD5D7FC112107CE4FD7FC326
:1007AE0012107C7D047F0812107C7F017E007D007C
:1007BE007C00120B9DE4FD7F0812107C7F017E00F1
:1007CE007D007C00120B9DE4F55EAB5AAA5BA95C22
:1007DE00855E82758300120A4DFD600E7F05121034
:1007EE007C055EE55EC3943240E0AD5E7FB91210CB
:0F07FE007C7DFF7FB212107C7D047F3712107C50
:01080D0022C8
:10033A008F6FE56FB43200400302040690034DF854
:10034A002828730203E30203EB0203F30203FB020E
:10035A0003FB0203FB0203FB0203FB0203FB020390
:10036A00FB0203FB0203FB0203FB0203FB0203FB88
:10037A000203FB0203FB0203FB0203FB0203FB0271
:10038A0003FB0203FB0203FB0203FB0203FB020360
:10039A00FB0203FB0203FB0203FB0203FB0203FB58
:1003AA000203FB0203FB0203FB0203FB0203FB0241
:1003BA0003FB0203FB0203FB0203FB0203FB020330
:1003CA00FB0203FB0203FB0203FB0203FB0203FB28
:1003DA000203FB0203FB0203FB7BFF7A0C79078013
:1003EA00167BFF7A0C790C800E7BFF7A0C791080D1
:0D03FA00067BFF7A0C7914AD6F1207762296
:101001007BFF7A0C791512105712114E756E01E49F
:10101100F56D12102EEF7004F56E800EAF6D120398
:0C1021003A056DE56DC3940E40E8AF6E1B
:01102D0022A0
:101121007FC51210A18F707BFF7A0C79281210579E
:0A113100AF70120D0212114EAF70E4
:01113B002291
:100AB4008F71E571C3940E5074E57175F008A42428
:100AC40000F582E43400F583E0FCA3E0FDA3E0FE3E
:100AD400A3E0F54B8E4A8D498C48E57175F008A466
:100AE4002404F582E43400F583E0FCA3E0FDA3E0F4
:100AF400FEA3E0F5548E538D528C517BFF7A0C7912
:100B040036121057AF71120D02AF4BAE4AAD49AC5D
:100B140048120DDDAF54AE53AD52AC51120DDD127F
:0E0B2400114E1206367F071210E9120CA8229D
:100FCF008F727BFF7A0C7943121057AF72120D029A
:100FDF00E57224F6600F14600C1460091460062487
:100FEF0004700E80007BFF7A0C79141210571211C7
:020FFF004E2280
:0300000002089D56
:0C089D00787FE4F6D8FD75817B0208E44A
:100A3400BB010689828A83E0225002E722BBFE02C0
:090A4400E32289828A83E49322F3
:100A4D00BB010CE58229F582E5833AF583E022505E
:100A5D0006E92582F8E622BBFE06E92582F8E222A8
:0D0A6D00E58229F582E5833AF583E49322C2
:100A7A00EB9FF5F0EA9E42F0E99D42F0EC6480C8F3
:060A8A0064809845F02293
:100A9000EB9FF5F0EA9E42F0E99D42F0E89C45F0BC
:010AA0002233
:100AA100E8600FECC313FCED13FDEE13FEEF13FF33
:030AB100D8F12257
:10113C00C3EE6480948040028007C3E49FFFE49E6A
:02114C00FE2281
:1008A9000206DCE493A3F8E493A34003F68001F283
:1008B90008DFF48029E493A3F85407240CC8C33350
:1008C900C4540F4420C8834004F456800146F6DF1F
:1008D900E4800B0102040810204080900929E47E7D
:1008E900019360BCA3FF543F30E509541FFEE49314
:1008F900A360010ECF54C025E060A840B8E493A3DB
:10090900FAE493A3F8E493A3C8C582C8CAC583CA05
:10091900F0A3C8C582C8CAC583CADFE9DEE780BEBD
:0109B3000043
:00000001FF
